:10000000804E050CE5041526BCCE01BF01AA01B245
:0A00100001B701A201CA01D501DD0C
:10005000D2927590CF12080030B31330B50280F8F9
:1000600020B5FD30B5FDEBF812012EE4801920B368
:10007000FD30B3FDE5A0FB12012EA8A0C2D780077A
:1000800090000293F59022EA11800ABA08047A00DF
:1000900080F530B35530B50280F820B5FD30B5FDA0
:1000A00080E5120103E85902011A120103E849022E
:1000B000011AE8F402011A120103E86902011A1296
:1000C0000103E82920D71E02011A120103E8992032
:1000D000D71302011AE82320D70B02011AE80320E4
:1000E000D70302011AC29202011A20B3FD30B3FDF8
:1000F00090000A11F8C2D7731AEA6006E42402DA03
:10010000FC222275905430B30280F820B3FD30B346
:10011000FDE5A0F9FB12012EE422759046FB312E7D
:1001200030B30280FB20B3FD30B3FD020050EB542E
:10013000F0C4314012080DEB540F314012080D226B
:10014000B40A03744122B40B03744222B40C037446
:100150004322B40D03744422B40E03744522B40F39
:070160000374462224302243
:1008000075985075C83475CBFF75CAD9222099FDEB
:10081000F5993099FDC299223098FDC298E5992248
:00000001FF
